:100000000C941B010C944C010C944C010C944C016D
:100010000C944C010C944C010C944C010C944C012C
:100020000C944C010C944C010C944C010C944C011C
:100030000C944C010C944C010C944C010C944C010C
:100040000C944C010C944C010C944C010C944C01FC
:100050000C944C010C9444070C944C010C94FA063B
:100060000C944C010C94C4060C949A060C944C010C
:100070000C944C010C944C010C944C010C944C01CC
:100080000C944C010C944C010C944C010C944C01BC
:100090000C944C010C944C010C944C010C944C01AC
:1000A0000C944C010C944C010C944C010C944C019C
:1000B0000C944C010C944C010C944C010C944C018C
:1000C0000C944C010C944C010C944C010C944C017C
:1000D0000C944C010C944C010C944C010C944C016C
:1000E0000C944C010C9451020C94AC010C949E01A4
:1000F0000C948A010C94E4010C944E010C947B0145
:100100000C94D5072C20005D203D3E204C45443A00
:10011000205B00204E6F7461206E756D65726F3AC2
:10012000205B0020204C45442000202600207C7CC1
:100130002000202600546F6C74616C204C45443ABA
:1001400020005069616E6F206C656E6768743A209C
:10015000004E6F7465206C656E6768743A200054B9
:100160006F6C74616C207768697465206E6F74655C
:100170003A200000002200250028002B002E00312C
:1001800000340002010000050108010B01000021FC
:1001900000240027002A002D003000330001010058
:1001A00000040107010A01050505050705080808FF
:1001B00008020202020A0A080804040404010101F8
:1001C0000101010101030303030303030304070700
:1001D000070C0C0C0C0C0C0C0C020202020606069E
:1001E00006060606060B0B0B0B0B0B0B0B01021086
:1001F0002020080810204010204080020102010841
:1002000004020101020408102040808040201008F0
:100210000402018004020180402010080402010849
:1002200004020101020408102040800102040810A9
:1002300020408000D50711241FBECFEFD1E2DEBFE2
:10024000CDBF00E00CBF22E0A8E3B2E001C01D92E8
:10025000A33EB207E1F712E0A0E0B2E0EAE4F7E182
:1002600000E00BBF02C007900D92A833B107D9F789
:1002700011E0CBE1D1E000E006C021970109802F19
:10028000FE010E94760ACA31D10780E00807A9F76B
:100290000E9460070C94A30B0C940000AF92BF92D5
:1002A000CF92DF92EF92FF920F931F93CF93DF9342
:1002B0006C017B018B01040F151FEB015E01AE1871
:1002C000BF08C017D10759F06991D601ED91FC9193
:1002D0000190F081E02DC6011995892B79F7C501B0
:1002E000DF91CF911F910F91FF90EF90DF90CF9012
:1002F000BF90AF900895FC01538D448D252F30E0C1
:10030000842F90E0821B930B541710F0CF96089522
:1003100001970895FC01918D828D981761F0A28D4F
:10032000AE0FBF2FB11D5D968C91928D9F5F9F7315
:10033000928F90E008958FEF9FEF0895FC01918DCB
:10034000828D981731F0828DE80FF11D858D90E038
:1003500008958FEF9FEF0895FC01918D228D892FD5
:1003600090E0805C9F4F821B91098F7399270895BD
:1003700082E492E00E94AC0121E0892B09F420E0A4
:10038000822F0895FC01A48DA80FB92FB11DA35A87
:10039000BF4F2C91848D90E001968F739927848FA5
:1003A000A689B7892C93A089B1898C9183708064C8
:1003B0008C93938D848D981306C00288F389E02D69
:1003C00080818F7D80830895EF92FF920F931F931A
:1003D000CF93DF93EC0181E0888F9B8D8C8D9813F8
:1003E0001AC0E889F989808185FF15C09FB7F89404
:1003F000EE89FF896083E889F98980818370806450
:1004000080839FBF81E090E0DF91CF911F910F919A
:10041000FF90EF900895F62E0B8D10E00F5F1F4FA9
:100420000F731127E02E8C8D8E110CC00FB607FCB8
:10043000FACFE889F989808185FFF5CFCE010E9446
:10044000C201F1CFEB8DEC0FFD2FF11DE35AFF4FF1
:10045000F0829FB7F8940B8FEA89FB8980818062D4
:10046000CFCF682F82E492E00C94E4010F931F93A6
:10047000CF93DF938C01D0E0C0E0F801EC0FFD1FBB
:100480006491662341F082E492E00E94E401892BAA
:1004900011F02196F2CFCE01DF91CF911F910F91F4
:1004A0000895CF93DF93EC01888D8823B9F0AA8952
:1004B000BB89E889F9898C9185FD03C0808186FD1F
:1004C0000DC00FB607FCF7CF8C9185FFF2CF80816E
:1004D00085FFEDCFCE010E94C201E9CFDF91CF9120
:1004E000089580E090E0892B29F00E94B8018111E5
:1004F0000E94000080E090E0892B49F080E090E0CD
:10050000892B29F00E94000081110E94000080E0E8
:1005100090E0892B49F080E090E0892B29F00E943F
:10052000000081110E94000080E090E0892B49F0DA
:1005300080E090E0892B29F00E94000081110C944A
:1005400000000895CF93DF9390E0FC01E351FE4F4C
:10055000249189559E4FFC0184918823D1F090E02D
:10056000880F991FFC01E357FE4FA591B491FC0140
:10057000ED58FE4FC591D49161110EC09FB7F8940C
:100580008C91E22FE0958E238C932881E223E883DF
:100590009FBFDF91CF9108958FB7F894EC91E22B34
:1005A000EC938FBFF6CFFC0101900020E9F7319763
:1005B000AF01481B590BBC0182E492E00C944E0140
:1005C0008F929F92AF92BF920F931F93CF93DF931F
:1005D000CDB7DEB7A1970FB6F894DEBF0FBECDBF83
:1005E00019A2423008F44AE08E010F5D1F4F842E9D
:1005F000912CB12CA12CA50194010E94540AE62F44
:10060000B901CA01EA30F4F4E05DD801EE938D013E
:10061000232B242B252B79F790E080E0109719F0FD
:10062000CD010E94D302A1960FB6F894DEBF0FBE93
:10063000CDBFDF91CF911F910F91BF90AF909F9051
:100640008F900895E95CE1CFCF93DF93BC01990FC0
:10065000880B990B4AE00E94E002EC0185E392E0EE
:100660000E94D3028C0F9D1FDF91CF910895BC0192
:10067000990F880B990B4AE00C94E0028F929F929D
:10068000AF92BF92CF92DF92EF92FF921F93CF93E0
:10069000DF936B017C01B42E20E030E0A9010E94C1
:1006A0000208D0E0C0E087FF08C08DE20E9431025E
:1006B000EC01F7FAF094F7F8F09410E060E070E0E5
:1006C00080E09FE31B1541F020E030E040E251E480
:1006D0000E94A2091F5FF6CFA70196010E9436096A
:1006E0006B017C010E94140A4B015C014AE00E94EC
:1006F000E002C80FD91F1123B1F1C501B4010E9456
:1007000007089B01AC01C701B6010E9435096B01C6
:100710007C018EE20E943102C80FD91F115018F1DE
:1007200020E030E040E251E4C701B6010E946808D1
:100730004B015C010E94140A6B01F12CE12C4AE090
:10074000C701B6010E94E002C80FD91FC701B60158
:100750000E9407089B01AC01C501B4010E94350944
:100760006B017C01DBCFCE01DF91CF911F91FF9018
:10077000EF90DF90CF90BF90AF909F908F900895B3
:100780002F923F924F925F926F927F928F929F92A1
:10079000AF92BF92CF92DF92EF92FF920F931F938F
:1007A000CF93DF93CDB7DEB7C555D3400FB6F894DE
:1007B000DEBF0FBECDBF61E083E00E94A20285E0F4
:1007C000E6E0F2E0DE01119601900D928A95E1F7E4
:1007D00014BC15BC109285001092840010926E001B
:1007E0009E012F5F3F4F790111E0812CE4E29E2EA4
:1007F000E4EFAE2EB12CD7012D917D0130E0A8EEB3
:10080000B3E00E9426099B01AC01C501B4010E941E
:10081000540ADA01C9010197A109B1098F3F910575
:10082000A105B10521F018F01F5F163021F787BD33
:1008300085B5182B15BD84B5826084BD82E0809398
:100840006E00E0915202F09153028083E0914E02DB
:10085000F0914F021082E0915002F091510280E13C
:10086000808310925A02E0915602F091570286E07E
:100870008083E0915402F0915502808180618083F1
:10088000E0915402F0915502808188608083E0916C
:100890005402F0915502808180688083E091540277
:1008A000F091550280818F7D808388EC888F198E2E
:1008B0008AE48A8FFE01E558FE4F9E012F5F3F4F6D
:1008C00069015E0133ECA31A3CEFB30A1182108276
:1008D0003696AE16BF06D1F78CE0EBE0F2E0D5011C
:1008E00001900D928A95E1F78CE0E7E1F2E0DE01FC
:1008F000A75BBC4F01900D928A95E1F786E08F8B44
:100900008AEE90E00E947E0A2AEE30E04EE450E04B
:10091000009721F430E020E050E040E0EDEAF1E023
:10092000E491F0E0EE0FFF1FED58FE4F65917491DA
:10093000E3EFF1E0E491F1E0F9831A825C834B8309
:100940003E832D8326E030E038872F8319869B87EE
:100950008A87FC871D8622E02E87FF87188A198ADE
:100960001A8A1B8A7D8B6C8BEE8B0E941A0B60E0BF
:1009700086E00E94A2028FE591E00E94360284E3A5
:1009800090E00E94240381E591E00E94360242E05B
:100990006AE979E989E190E40E943E0385E392E007
:1009A0000E94D30282E491E00E94360242E06AE9AA
:1009B00079E989EF92E40E943E0385E392E00E9488
:1009C000D30285E391E00E9436028BE490E00E941E
:1009D0002403888DCB5ADC4F8883C555D3408E01C4
:1009E000055E1F4F780175E1972E892D6CE00E94FE
:1009F000480AA82FA150BB0B3D01892F90E0F501BB
:100A0000E80FF91F2081212C312C2101222341F0F4
:100A100001973AE9232E39E9332E432C3FE3532E35
:100A2000E9E4F3E0EC0FFD1F8E0F9F1FDC016C91DA
:100A300070E06F5F7F4F90E080E00E9407082AE936
:100A400039E949E150E40E946808A20191010E943D
:100A500036091B012C01B30190E080E00E940708D9
:100A60002AE939E949E150E40E94680820E030E0D1
:100A700040EE50E40E94680820E030E040E451E499
:100A80000E943509A20191010E94360923E333E354
:100A900043ED5FE30E94A20920E030E040E85FE31D
:100AA0000E9435092B013C010E94140A862EF70191
:100AB00090821182128270E090E080E00E9409082A
:100AC0009B01AC01C301B2010E9435092DEC3CEC45
:100AD0004CE05FE30E94430A87FD5CC0882D80687C
:100AE000D70113968C93D70113964C91B42FB17004
:100AF0006B2E62E070E040FD02C061E070E04F7775
:100B000050E0812C882D90E0861797070CF047C0A5
:100B1000840F951F26E0289FF001299FF00D1124D6
:100B2000A1E0B0E0AC0FBD1FEA0FFB1FE658FE4F7F
:100B300020813181232B11F4F182E082B6E0B89F4D
:100B40009001B99F300D1124E1E0F0E0EC0FFD1FA2
:100B50002E0F3F1FF901E458FE4F7080D901A358B2
:100B6000BE4FCB5ADC4F8881C555D3408C93225859
:100B70003E4FD9011D921C92872D90E09595879547
:100B800083708F5FB72DB97F7B2E7628782A70828D
:100B90008394B8CF882D8F77F7018383A4CF939464
:100BA000E4E0EE0EF11CFDE69F121FCF812C912C8C
:100BB0005401740183E191E00E943602D8016C91E6
:100BC00070E090E080E04AE00E94E002F80180815D
:100BD0008A3018F480E20E943102D8018C91843668
:100BE00018F480E20E94310287E091E00E94360210
:100BF000F80183818F7790E00E943703D801139624
:100C00008C918F778A3018F480E20E943102F801CB
:100C1000838180FF85C084E091E00E943602D80184
:100C200013968C918F7790E001960E943703F8011C
:100C300083818F77893018F480E20E9431028DE53C
:100C40000E94310282E391E00E943602B80190E0F6
:100C500080E04AE00E94E0028DE291E00E943602CC
:100C6000B701FF0C880B990B0E94090822ED35E4AF
:100C700047E952E40E94020887FF18C08AE291E027
:100C80000E943602B60166587E4F90E080E04AE04E
:100C90000E94E00283E291E00E9436024AE0C50130
:100CA000B4010E94E00280E20E94310285E392E0FA
:100CB0000E94D3020C5F1F4FF6E0CF0ED11C2FEF26
:100CC000821A920AA20AB20A38E583169104A10494
:100CD000B10409F06ECF8A859B850E941A0B8F8123
:100CE000988597FD03C060E00E94A202CB5ADC4FBA
:100CF0000FB6F894DEBF0FBECDBFDF91CF911F912D
:100D00000F91FF90EF90DF90CF90BF90AF909F90AA
:100D10008F907F906F905F904F903F902F900895AD
:100D200080E20E94310280E20E94310280E20E9451
:100D3000310282CF1F920F920FB60F9211240BB681
:100D40000F922F933F934F935F936F937F938F9364
:100D50009F93AF93BF93EF93FF9382E492E00E943F
:100D6000C201FF91EF91BF91AF919F918F917F91C0
:100D70006F915F914F913F912F910F900BBE0F900C
:100D80000FBE0F901F9018951F920F920FB60F92E3
:100D900011240BB60F922F938F939F93EF93FF9392
:100DA000E0915202F09153028081E0915802F0915B
:100DB000590282FD1DC0908180915B028F5F8F730D
:100DC00020915C02821741F0E0915B02F0E0EE5B63
:100DD000FD4F958F80935B02FF91EF919F918F91D3
:100DE0002F910F900BBE0F900FBE0F901F90189574
:100DF0008081F2CF1F920F920FB60F9211242F9382
:100E00003F938F939F93AF93BF9380913E029091B6
:100E10003F02A0914002B091410230913D0223E097
:100E2000230F2D3758F50196A11DB11D20933D02CA
:100E300080933E0290933F02A0934002B093410200
:100E40008091390290913A02A0913B02B0913C020C
:100E50000196A11DB11D8093390290933A02A0938F
:100E60003B02B0933C02BF91AF919F918F913F9114
:100E70002F910F900FBE0F901F90189526E8230F0B
:100E80000296A11DB11DD2CF1F920F920FB60F92E5
:100E900011248F939F938091380291E0892780934A
:100EA0003802882351F08EB183708EB99F918F9153
:100EB0000F900FBE0F901F9018958EB18C6FF5CFCD
:100EC000789484B5826084BD84B5816084BD85B525
:100ED000826085BD85B5816085BD80916E00816031
:100EE00080936E00109281008091810082608093D7
:100EF00081008091810081608093810080918000D9
:100F00008160809380008091B10084608093B10003
:100F10008091B00081608093B000809191008260E8
:100F200080939100809191008160809391008091E5
:100F300090008160809390008091A10082608093F6
:100F4000A1008091A10081608093A1008091A00008
:100F500081608093A00080912101826080932101B3
:100F60008091210181608093210180912001816025
:100F70008093200180917A00846080937A00809130
:100F80007A00826080937A0080917A0081608093F9
:100F90007A0080917A00806880937A001092C10074
:100FA0000E94C0030E947102FDCFE2E4F2E01382CE
:100FB000128288EE93E0A0E0B0E084839583A6835C
:100FC000B78387E292E09183808385EC90E09587F8
:100FD000848784EC90E09787868780EC90E0918B03
:100FE000808B81EC90E0938B828B82EC90E0958BF0
:100FF000848B86EC90E0978B868B118E128E138EED
:10100000148E08950E94440808F481E00895E8943D
:1010100009C097FB3EF490958095709561957F4F40
:101020008F4F9F4F9923A9F0F92F96E9BB279395EE
:10103000F695879577956795B795F111F8CFFAF4FE
:10104000BB0F11F460FF1BC06F5F7F4F8F4F9F4F2F
:1010500016C0882311F096E911C0772321F09EE88D
:10106000872F762F05C0662371F096E8862F70E0F3
:1010700060E02AF09A95660F771F881FDAF7880FCD
:101080009695879597F90895990F0008550FAA0B23
:10109000E0E8FEEF16161706E807F907C0F012168B
:1010A0001306E407F50798F0621B730B840B950B8E
:1010B00039F40A2661F0232B242B252B21F40895E3
:1010C0000A2609F4A140A6958FEF811D811D089580
:1010D0000E947B080C94EC080E94DE0838F00E9405
:1010E000E50820F0952311F00C94D5080C94DB084A
:1010F00011240C9420090E94FD0870F3959FC1F300
:10110000950F50E0551F629FF001729FBB27F00DB5
:10111000B11D639FAA27F00DB11DAA1F649F66270A
:10112000B00DA11D661F829F2227B00DA11D621F59
:10113000739FB00DA11D621F839FA00D611D221F13
:10114000749F3327A00D611D231F849F600D211DF7
:10115000822F762F6A2F11249F5750409AF0F1F07A
:1011600088234AF0EE0FFF1FBB1F661F771F881FE3
:1011700091505040A9F79E3F510580F00C94D5083E
:101180000C9420095F3FE4F3983ED4F3869577955D
:101190006795B795F795E7959F5FC1F7FE2B880F89
:1011A000911D9695879597F9089597F99F6780E81F
:1011B00070E060E008959FEF80EC089500240A94A9
:1011C0001616170618060906089500240A94121622
:1011D0001306140605060895092E0394000C11F455
:1011E000882352F0BB0F40F4BF2B11F460FF04C002
:1011F0006F5F7F4F8F4F9F4F089557FD9058440F5B
:10120000551F59F05F3F71F04795880F97FB991F65
:1012100061F09F3F79F08795089512161306140622
:10122000551FF2CF4695F1DF08C0161617061806AF
:10123000991FF1CF86957105610508940895E8948A
:10124000BB2766277727CB0197F90895A29FB001A6
:10125000B39FC001A39F700D811D1124911DB29FEA
:10126000700D811D1124911D08955058BB27AA2788
:101270000E944D090C94EC080E94DE0838F00E9490
:10128000E50820F039F49F3F19F426F40C94DB08AC
:101290000EF4E095E7FB0C94D508E92F0E94FD08B9
:1012A00058F3BA17620773078407950720F079F49B
:1012B000A6F50C941F090EF4E0950B2EBA2FA02D65
:1012C0000B01B90190010C01CA01A0011124FF27F3
:1012D000591B99F0593F50F4503E68F11A16F040EE
:1012E000A22F232F342F4427585FF3CF46953795ED
:1012F0002795A795F0405395C9F77EF41F16BA0BB2
:10130000620B730B840BBAF09150A1F0FF0FBB1F5F
:10131000661F771F881FC2F70EC0BA0F621F731FA8
:10132000841F48F4879577956795B795F7959E3F05
:1013300008F0B0CF9395880F08F09927EE0F979596
:10134000879508950E94B6090C94EC080E94E50860
:1013500058F00E94DE0840F029F45F3F29F00C9419
:10136000D50851110C9420090C94DB080E94FD084B
:1013700068F39923B1F3552391F3951B550BBB27C4
:10138000AA2762177307840738F09F5F5F4F220F09
:10139000331F441FAA1FA9F335D00E2E3AF0E0E800
:1013A00032D091505040E695001CCAF72BD0FE2F4A
:1013B00029D0660F771F881FBB1F261737074807DE
:1013C000AB07B0E809F0BB0B802DBF01FF27935896
:1013D0005F4F3AF09E3F510578F00C94D5080C947D
:1013E00020095F3FE4F3983ED4F38695779567959F
:1013F000B795F7959F5FC9F7880F911D96958795CB
:1014000097F90895E1E0660F771F881FBB1F6217E9
:1014100073078407BA0720F0621B730B840BBA0BA7
:10142000EE1F88F7E09508950E94050988F09F5700
:1014300098F0B92F9927B751B0F0E1F0660F771FF8
:10144000881F991F1AF0BA95C9F714C0B13091F0EE
:101450000E941F09B1E008950C941F09672F782F8F
:101460008827B85F39F0B93FCCF3869577956795B3
:10147000B395D9F73EF490958095709561957F4F1F
:101480008F4F9F4F08950E94440808F48FEF0895EE
:10149000991B79E004C0991F961708F0961B881FC6
:1014A0007A95C9F780950895A1E21A2EAA1BBB1B55
:1014B000FD010DC0AA1FBB1FEE1FFF1FA217B30720
:1014C000E407F50720F0A21BB30BE40BF50B661F36
:1014D000771F881F991F1A9469F7609570958095FA
:1014E00090959B01AC01BD01CF010895EE0FFF1F48
:1014F000881F8BBF0790F691E02D19940F931F93CF
:10150000CF93DF938230910510F482E090E0E09178
:10151000E102F091E20230E020E0B0E0A0E030979C
:1015200099F42115310509F44AC0281B390B2430E0
:101530003105D8F58A819B816115710589F1FB011F
:1015400093838283FE0111C0408151810281138106
:1015500048175907E0F04817590799F4109761F0B8
:1015600012960C93129713961C933296CF01DF912B
:10157000CF911F910F9108950093E1021093E20221
:10158000F4CF2115310551F04217530738F0A90166
:10159000DB019A01BD01DF01F801C1CFEF01F9CFF5
:1015A0009093E2028093E102CDCFFE01E20FF31FA0
:1015B000819391932250310939832883D7CF209189
:1015C000DF023091E002232B41F42091020230919E
:1015D00003023093E0022093DF0220910002309159
:1015E00001022115310541F42DB73EB740910402A7
:1015F00050910502241B350BE091DF02F091E002CF
:10160000E217F307A0F42E1B3F0B2817390778F0D9
:10161000AC014E5F5F4F2417350748F04E0F5F1F38
:101620005093E0024093DF02819391939FCFF0E0CB
:10163000E0E09CCFCF93DF930097E9F0FC01329775
:1016400013821282A091E102B091E202ED0130E03A
:1016500020E01097A1F420813181820F931F209107
:10166000DF023091E0022817390709F061C0F093DA
:10167000E002E093DF02DF91CF910895EA01CE17F7
:10168000DF07E8F54A815B819E0141155105B1F7FD
:10169000E901FB83EA8349915991C40FD51FEC17E7
:1016A000FD0761F4808191810296840F951FE90105
:1016B00099838883828193819B838A83F0E0E0E031
:1016C00012968D919C9113970097B9F52D913C91AD
:1016D0001197CD010296820F931F2091DF02309166
:1016E000E0022817390739F6309751F51092E202D7
:1016F0001092E102B093E002A093DF02BCCFD3834B
:10170000C28340815181840F951FC817D90761F4A6
:101710004E5F5F4F88819981480F591F51834083E5
:101720008A819B81938382832115310509F0B0CF93
:10173000F093E202E093E1029ECFFD01DC01C0CF15
:0A17400013821282D7CFF894FFCF76
:10174A000000E302800001084000000001000100DF
:10175A00000100010001000000010102030304046A
:10176A0005050600000000E4014E017B015102ACB0
:08177A00018A019E010D0A0025
:00000001FF
