:020000040000FA
:100000000C948E010C94B6010C94B6010C94B601BC
:100010000C94B6010C94B6010C94B6010C94B60184
:100020000C94B6010C94B6010C94B6010C94B60174
:100030000C94B6010C94B6010C940A0F0C94B60102
:100040000C94C00E0C94B6010C948E0E0C94680E99
:100050000C94B6010C94B6010C94B6010C94B60144
:100060000C94B6010C94B6010000000800020100D7
:100070000003040700000000000000002C20005DC9
:10008000203D3E204C45443A205B00204E6F746179
:10009000206E756D65726F3A205B0020204C4544E0
:1000A0002000202600207C7C2000202600546F6C3D
:1000B00074616C204C45443A20005069616E6F2099
:1000C0006C656E6768743A20004E6F7465206C65CD
:1000D0006E6768743A2000546F6C74616C207768A6
:1000E000697465206E6F74653A200000000000247A
:1000F0000027002A00446F6E65004572726F7265BA
:1001000000496E69742055534220486F73743A2039
:1001100000000002030301020303030303020203BE
:10012000015B4D4944495D2053454E44205359538A
:1001300054454D2052455345542E2E2E0A005553FA
:10014000425F53544154455F52554E4E494E470A03
:10015000005553425F53544154455F4552524F52EC
:100160000A005553425F53544154455F434F4E4636
:1001700049475552494E470A005553425F4154542E
:1001800041434845445F53554253544154455F47AA
:1001900045545F4445564943455F4445534352499E
:1001A00050544F525F53495A450A005553425F41DC
:1001B000545441434845445F535542535441544578
:1001C0005F574149545F52455345540A00555342C5
:1001D0005F41545441434845445F53554253544151
:1001E00054455F574149545F534F460A00555342A7
:1001F0005F41545441434845445F53554253544131
:1002000054455F574149545F52455345545F434FEE
:100210004D504C4554450A005553425F44455441A6
:10022000434845445F53554253544154455F5741F9
:1002300049545F464F525F4445564943450A00556D
:1002400053425F41545441434845445F53554253E0
:10025000544154455F52455345545F4445564943C4
:10026000450A005553425F41545441434845445F59
:1002700053554253544154455F534554544C450AD9
:10028000005553425F44455441434845445F5355EC
:100290004253544154455F494C4C4547414C0A0038
:1002A0005553425F44455441434845445F5355428A
:1002B00053544154455F494E495449414C495A456C
:1002C0000A005553425F53544154455F44455441DD
:1002D000434845440A0055534220706F727420739E
:1002E000746174653A200001020408102040800106
:1002F000020408102001020408102000000000255C
:100300000028002B00040404040404040402020274
:1003100002020203030303030300011111241FBEA1
:10032000CFEFD8E0DEBFCDBF26E0AAE6B1E001C046
:100330001D92A233B207E1F711E0A0E0B1E0E8E1DD
:10034000F9E302C005900D92AA36B107D9F711E082
:10035000CEE8D1E004C02197FE010E94581BCD38A1
:10036000D107C9F70E9412130C948A1C0C94000048
:100370008CBD9DBD0895AF92BF92CF92DF92EF9258
:10038000FF920F931F93CF93DF936C017B018B013F
:10039000040F151FEB015E01AE18BF08C017D1078F
:1003A00059F06991D601ED91FC910190F081E02D19
:1003B000C6010995892B79F7C501DF91CF911F916E
:1003C0000F91FF90EF90DF90CF90BF90AF90089586
:1003D000FC01538D448D252F30E0842F90E0821B4B
:1003E000930B541710F0CF96089501970895FC01D0
:1003F000918D828D981761F0A28DAE0FBF2FB11D28
:100400005D968C91928D9F5F9F73928F90E008957F
:100410008FEF9FEF0895FC01918D828D981731F039
:10042000828DE80FF11D858D90E008958FEF9FEF8D
:100430000895FC01918D228D892F90E0805C9F4F63
:10044000821B91098F739927089581E891E00E949A
:10045000190221E0892B09F420E0822F089580E021
:1004600090E0892B29F00E94250281110C94000054
:100470000895FC01A48DA80FB92FB11DA35ABF4F39
:100480002C91848D90E001968F739927848FA68993
:10049000B7892C93A089B1898C91837080648C93E7
:1004A000938D848D981306C00288F389E02D808196
:1004B0008F7D80830895EF92FF920F931F93CF93C8
:1004C000DF93EC0181E0888F9B8D8C8D98131AC08F
:1004D000E889F989808185FF15C09FB7F894EE8976
:1004E000FF896083E889F9898081837080648083D3
:1004F0009FBF81E090E0DF91CF911F910F91FF901E
:10050000EF900895F62E0B8D10E00F5F1F4F0F73C5
:100510001127E02E8C8D8E110CC00FB607FCFACF80
:10052000E889F989808185FFF5CFCE010E943902E3
:10053000F1CFEB8DEC0FFD2FF11DE35AFF4FF08251
:100540009FB7F8940B8FEA89FB8980818062CFCFB7
:100550000F931F93CF93DF938C01D0E0C0E0F8019D
:10056000EC0FFD1F6491662341F081E891E00E9449
:100570005B02892B11F02196F2CFCE01DF91CF9152
:100580001F910F910895682F81E891E00C945B0210
:10059000CF93DF93EC01888D8823B9F0AA89BB89BA
:1005A000E889F9898C9185FD03C0808186FD0DC0A5
:1005B0000FB607FCF7CF8C9185FFF2CF808185FFC6
:1005C000EDCFCE010E943902E9CFDF91CF9108959E
:1005D00090E0FC01E859FF4F2491FC01E951FD4FE7
:1005E0003491FC01EB5FFC4FE491EE23C9F0222330
:1005F00039F0233001F1A8F4213019F1223029F12A
:10060000F0E0EE0FFF1FE550FD4FA591B4918FB7BD
:10061000F894EC91611126C030953E233C938FBF36
:1006200008952730A9F02830C9F0243049F7809187
:1006300080008F7D03C0809180008F778093800041
:10064000DFCF84B58F7784BDDBCF84B58F7DFBCFC3
:100650008091B0008F778093B000D2CF8091B000AE
:100660008F7DF9CF3E2BDACFCF93DF9390E0FC0163
:10067000E951FD4F24918B5F9C4FFC0184918823AD
:10068000D1F090E0880F991FFC01E551FF4FA59133
:10069000B491FC01E550FD4FC591D49161110EC09C
:1006A0009FB7F8948C91E22FE0958E238C9328814C
:1006B000E223E8839FBFDF91CF9108958FB7F8942D
:1006C000EC91E22BEC938FBFF6CF3FB7F89480917B
:1006D000700190917101A0917201B091730126B5E2
:1006E000A89B05C02F3F19F00196A11DB11D3FBF6A
:1006F000BA2FA92F982F8827BC01CD01620F711D39
:10070000811D911D42E0660F771F881F991F4A9532
:10071000D1F708958F929F92AF92BF92CF92DF92BE
:10072000EF92FF924B015C010E9465036B017C011B
:100730000E9465036C197D098E099F09683E73400C
:1007400081059105A8F321E0821A9108A108B1085A
:1007500088EEC80E83E0D81EE11CF11C81149104C0
:10076000A104B10429F7FF90EF90DF90CF90BF90E4
:10077000AF909F908F9008952FB7F89460916C017F
:1007800070916D0180916E0190916F012FBF08955E
:100790008F929F92AF92BF92CF92DF92EF92FF9291
:1007A000CF93DF93FC014A01AA24BB24C32ED42E8D
:1007B000E52EFF24DC2DC22F8085982D882391F013
:1007C000C82FD0E0C89DD001C99DB00DD89DB00DF7
:1007D00011249B2F8C9D60011124DD2D829F90019F
:1007E0001124C32FA685218532858385A81321C0B6
:1007F000AB01440F551F640F751F620F731FA38554
:10080000A60FB72FB11D9C93A485A60FB72FB11DBE
:10081000DC938585680F711DFB01C083DF91CF914B
:10082000FF90EF90DF90CF90BF90AF909F908F9010
:100830000895660F771F660F771F620F731FA60F4D
:10084000B72FB11D1C92DBCFCF93DF93EC018C81CE
:100850009D81DC01ED91FC910480F581E02D6E819C
:1008600009951E821F82CA5ADF4F188280E0DF91ED
:10087000CF910895FC01868108950F931F93CF9324
:10088000DF93FC018B01EA0180819181892B31F199
:100890009281992349F128813981232BF9F0D801DC
:1008A0002D913C91D9014C918381682F691B770B65
:1008B00080819181860F971FDC014C93828181504A
:1008C000828388819981019799838883D8018D914A
:1008D0009C91119701968D939C93DACF80E0DF91E4
:1008E000CF911F910F9108958381828381E0F7CF8B
:1008F0003F924F925F926F927F928F929F92AF92B0
:10090000BF92CF92DF92EF92FF920F931F93CF93FC
:10091000DF9300D000D0CDB7DEB76C017A83698356
:100920005C834B8384E0482E360182E1680E711CA3
:1009300093E0392E5601A7E0AA0EB11C12E055240F
:1009400053944601B0E18B0E911C29813A81211507
:10095000310509F4CAC0F60180A18230F1F0A8F592
:10096000882309F45AC0813091F7AE014F5F5F4F81
:10097000BE016D5F7F4FC5010E943D04882309F4CD
:10098000B4C0D6011596ED91FC9116978081919691
:100990008C939197818192968C93F60176826582F1
:1009A00030A2D60192968C919297843011F495964C
:1009B0001C92F60181A18250848325813681308783
:1009C00027838287818740A205C0833051F384301A
:1009D00009F0BDCFD60192968C919297843031F177
:1009E000853009F445C0823009F073C0AE014F5F15
:1009F0005F4FBE016D5F7F4FC5010E943D0488239C
:100A000009F473C0F601858986A3D60116969C92D7
:100A10008E92159790961C9298CF1483858196811B
:100A2000908787831287118750A29FCFAE014F5FB7
:100A30005F4FBE016D5F7F4FC5010E943D0488235B
:100A400009F453C0D60194968C919497882349F069
:100A500055968C9155978130C1F656968C9183307E
:100A6000A1F6F60155A283A1823078F613A2CDCF6C
:100A7000AE014F5F5F4FBE016D5F7F4FC5010E94AA
:100A80003D04882391F1D60195968C919597882302
:100A900009F4BBCF93968C919397823008F0B5CF31
:100AA00012968D919C91DC01ED91FC910190F08169
:100AB000E02D740100E020E040E0D60196966C91B4
:100AC0000995882309F4A1CFF60183A18F5F83A341
:100AD0009CCF1D968C918823F1F0813019F1F6019D
:100AE00086859785892B09F490CF0F900F900F90F2
:100AF0000F90DF91CF911F910F91FF90EF90DF90BA
:100B0000CF90BF90AF909F908F907F906F905F90AD
:100B10004F903F900895F60181A18250990B9787DD
:100B20008687558629813A818B819C81782F692F10
:100B3000D6011E964D915C911F974115510591F07C
:100B400001962115310549F0415051091F965C93DA
:100B50004E931E9721503109E9CF7B836C831A8213
:100B60001982BDCF9C838B833A832983F601158636
:100B7000B6CFDF92EF92FF920F931F93CF93DF9345
:100B8000EC0185E0E62EF12CFE01869FE00DF11DC3
:100B90001124908596FF24C0192F177001E085E07D
:100BA000D82E8FEF800F8F3008F001E0602F70E0BB
:100BB000062FD69EF001D79EF00D1124EC0FFD1FDD
:100BC00080858695869586958770181701F16F5FE9
:100BD0007F4F603168F38D81811302C011501D83F6
:100BE00085E08E9DF0018F9DF00D1124EC0FFD1F0F
:100BF000108681E0818712862296D783C683DF9193
:100C0000CF911F910F91FF90EF90DF900895CE014B
:100C10000E94B905C6CFFC0120812EBD9B01215049
:100C2000310941F051810DB407FEFDCF4EB55EBDD7
:100C30004193F5CF61507109860F971F0DB407FEE0
:100C4000FDCF2EB5FC0120830895FC0121E0613425
:100C500099F49C01255B3F4F61E0AC014E5F5F4F13
:100C60001586668717865487438735962E173F0764
:100C7000B9F7FC01158208953585631729F02F5FB8
:100C800035962031C9F70895622F0C94B905CF939A
:100C9000DF93FC0167FD12C0283080F4442319F073
:100CA0008581873059F0EF01A1E0B0E08D85882380
:100CB00049F111962596A031B105C1F780E018C021
:100CC00085E08A9FE0018B9FD00D1124CE0FDF1F9E
:100CD000442389F081E4888785818F5F858325E0BF
:100CE0002A9FC0012B9F900D1124E80FF91F8085CA
:100CF000DF91CF91089581E08887F1CF2770687BDD
:100D0000622B0FC06623E1F26770660F660F660FF5
:100D10004423A1F3606485818F5F85838770687F3A
:100D2000682B25E02A9FC0012B9F900D1124E80F0E
:100D3000F91F6087862FDCCFFC0121E0611102C022
:100D4000069608953585631739F02F5F3596203163
:100D5000C9F790E080E00895069635E0239F800D66
:100D6000911D1124089580E0089580E0089581E0A8
:100D7000089580E00895089580E008952A980895E0
:100D80002A9A089508950F931F93CF93DF93D82F36
:100D9000C62F8A0180E591E00E94B8010E94BE063C
:100DA000D260DEBDF8018C2F882339F00DB407FE28
:100DB000FDCF91919EBD8150F7CFC00FD12FD11D96
:100DC0000DB407FEFDCF0E94C006CE01DF91CF918A
:100DD0001F910F9108950F931F93CF93DF9300D02E
:100DE000CDB7DEB7182F062F80E591E00E94B8013D
:100DF0000E94BE06126019830A8362E070E0CE0191
:100E000001960E940B060E94C0060F900F90DF9182
:100E1000CF911F910F9108958EBD00000DB407FE74
:100E2000FDCF8EB50895CF93C82F80E591E00E9445
:100E3000B8010E94BE068C2F0E940C0780E00E9421
:100E40000C07C82F0E94C0068C2FCF9108958F9257
:100E50009F92AF92BF92CF92DF92EF92FF920F9349
:100E60001F93CF93DF93882E962E5A010E94BC03C6
:100E70006B017C0128E8C20E23E1D21EE11CF11CAB
:100E800010E000E0D0E0C0E098280E94BC036C199C
:100E90007D098E099F0997FF1EC0692D80EF0E9472
:100EA000EB060E94BC036C197D098E099F0997FF10
:100EB00009C088EC0E94130787FFF3CF60E888EC35
:100EC0000E94EB0688EF0E941307C82FCF70C43032
:100ED00081F0CE30B9F08C2FDF91CF911F910F911F
:100EE000FF90EF90DF90CF90BF90AF909F908F904A
:100EF00008950F5F1F4FA114B10439F20A151B05A5
:100F000021F6E9CFDF5FD33009F0BFCFE4CFAF9256
:100F1000BF92CF92DF92EF92FF920F931F93CF93E6
:100F2000DF93EC01B62EA42E69010E949C067C0181
:100F300086EDE114F10409F447C0D701ED91FC916D
:100F4000119787ED309709F43FC013969C9180E08C
:100F5000981731F02081A21629F033968F5FF8CFD1
:100F6000F0E0E0E0D601ED93FC938BED309761F17A
:100F7000228126952695203108F02FE081E090E02F
:100F8000A0E0B0E004C0880F991FAA1FBB1F2A95DC
:100F9000D2F70197F801918380836B2D80EE0E9438
:100FA000EB0688ED0E941307D70114969C91682FD9
:100FB000697F992329F0CA58DF4F68816260682BE6
:100FC00088ED0E94EB0680E0DF91CF911F910F9199
:100FD000FF90EF90DF90CF90BF90AF9008952F9249
:100FE0003F924F925F926F927F928F929F92AF92B9
:100FF000BF92CF92DF92EF92FF920F931F93CF9306
:10100000DF9300D000D01F92CDB7DEB79D838C83D5
:101010004B017A016901FC0111818FEF810F80344E
:1010200008F0CBC00E94BC032B013C01F8E84F0E36
:10103000F3E15F1E611C711CEC81FD81828160E423
:1010400080FD60E888EE0E94EB06312C812F90E055
:101050009A838983E114F10409F48BC009811A8110
:10106000E016F10608F487010B83A601602F80E1EA
:101070000E94C306602F88E30E94EB06EC81FD818D
:101080006081606280EF0E94EB0688EC0E9413078B
:1010900087FFFBCF60E888EC0E94EB0688EF0E9498
:1010A00013078F70382EB12CA12C212C332001F185
:1010B0000E94BC03641975098609970997FF18C037
:1010C000F6E03F1609F440C02EE03216B1F084E09D
:1010D000381209C09FEFA91AB90A8114910489F046
:1010E000A814B90471F460E088E30E94EB0643C0E1
:1010F000E01AF10AC00ED11EADCF2394E3E02E1604
:1011000091F360E088E30E94EB06F601608180E1E4
:101110000E94EB066B8188E30E94EB06EC81FD8167
:101120006081606280EF0E94EB0688EC0E941307EA
:1011300087FFFBCF60E888EC0E94EB0688EF0E94F7
:1011400013078F70382EB2CF88EF0E94130785FBEC
:10115000882780F9F1E08F27EC81FD81928180FB67
:1011600090F9928360E490FD60E888EE0E94EB06BF
:10117000C8CF3110B8CF88EF0E941307EC81FD81F2
:10118000928185FB90F99283832D0F900F900F90A1
:101190000F900F90DF91CF911F910F91FF90EF90E3
:1011A000DF90CF90BF90AF909F908F907F906F9087
:1011B0005F904F903F902F9008958AED382EE4CFA6
:1011C00088EF0E941307807C8034B1F018F48823E4
:1011D00001F10895803819F0803CC9F0089588ED38
:1011E0000E94130781FD0DC069EC88ED0E94EB069B
:1011F00082E080938001089588ED0E94130781FDAD
:10120000F3CF6BEC88ED0E94EB0683E0F2CF81E038
:10121000F0CF61ED88ED0E94EB06109280010895F9
:10122000CF92DF92FF920F931F93CF93DF93F62E0F
:1012300001E0C82FD0E0CC0FDD1FC253DD4F6E019F
:1012400088819981DC01ED91FC910280F381E02D90
:101250002F2D40E060E00995182F803E49F561E0B0
:1012600088EE0E94EB0666E670E080E090E00E9467
:101270008A03F60180819181DC01ED91FC9101905E
:10128000F081E02D2F2D40E060E00995182F8D3082
:1012900041F58FEF800F833088F061E088EE0E9487
:1012A000EB0666E670E080E090E00E948A0310C0E2
:1012B0008D3061F48FEF800F833050F464E670E07E
:1012C00080E090E00E948A030F5FBACF882389F202
:1012D000812FDF91CF911F910F91FF90DF90CF90E1
:1012E00008958823A9F3D9CF2F923F924F925F920E
:1012F0006F927F928F929F92AF92BF92CF92DF9226
:10130000EF92FF920F931F93CF93DF937B013A01EC
:101310006901F901A080B180FB013180F9011182DE
:101320001082FB01828160E181FD60E288EE0E9413
:10133000EB062A2CA301F701608180E00E942707B9
:10134000582EF6E08F1310C088EF0E941307F701A4
:1013500092819D7F84FF9260928360E191FD60E2C3
:1013600088EE0E94EB06E6CF811150C088EC0E9407
:10137000130782FF5FC080E30E941307482E8A157F
:101380001B0411F008F0422CF60180819181E501E7
:10139000C81BD90BD7FF02C0D0E0C0E0842C912C31
:1013A0008C169D060CF4E40180E591E00E94B801E2
:1013B0000E94BE0688E00E940C07AE0170E060E06B
:1013C000C8010E94831C209721F0BE01C8010E9421
:1013D0000B060C0F1D1F0E94C00664E088EC0E94E3
:1013E000EB06F60180819181880E991E91828082A0
:1013F000431420F08A149B0408F49CCF88EF0E94C9
:101400001307F701928184FB91F99283852DDF9177
:10141000CF911F910F91FF90EF90DF90CF90BF90F1
:10142000AF909F908F907F906F905F904F903F9084
:101430002F90089580EF582EE9CF2F923F924F9230
:101440005F926F927F928F929F92AF92BF92CF9254
:10145000DF92EF92FF920F931F93CF93DF93CDB75D
:10146000DEB760970FB6F894DEBF0FBECDBF3C016C
:10147000542EF22E402E2DA03EA0188A1F861E86C6
:101480001D868E01035F1F4F9E01215F3F4F40E08D
:101490000E948707182F81117CC05982FA824B82E3
:1014A000EC821E821D82D886CF82AE014F5F5F4FD5
:1014B00068E080E20E94C3064D855E8560E080E1C1
:1014C0000E942707182F811164C08114910409F428
:1014D0004CC0EF85F889828157FE4DC082608283BF
:1014E000760144244394E114F10409F472C0BC86EB
:1014F000AB864D855E856F85788984019E01255F69
:101500003F4FC3010E947409182F863071F488EF91
:101510000E941307EF85F88985FB882780F98425C9
:10152000928180FB91F99283DECF811132C0211428
:10153000310499F06B857C85D101ED91FC9101908E
:10154000F081E02DC6018E199F099A8789879E0137
:10155000275F3F4FA401C10109958B859C85E81A3F
:10156000F90A8A159B0508F0BECF4D855E8557FEAA
:101570002AC080EA29C0816082836D857E859401BE
:10158000A501CF010E94EF07182F4D855E858823A6
:10159000D1F0812F60960FB6F894DEBF0FBECDBF9D
:1015A000DF91CF911F910F91FF90EF90DF90CF903F
:1015B000BF90AF909F908F907F906F905F904F9073
:1015C0003F902F90089580E860E00E942707182F31
:1015D000E0CF1111DECF4D855E85CBCF8F929F92EC
:1015E000AF92BF92CF92DF92EF920F93CF931F9261
:1015F0001F92912C812CB12CA12CD12CC12CE12C2F
:10160000062F25E040E060E00E941D0AC82F6CE232
:1016100071E080E090E00E948A030F900F908C2F81
:10162000CF910F91EF90DF90CF90BF90AF909F90B0
:101630008F9008958F929F92AF92BF92CF92DF9238
:10164000EF920F931F921F9249015A016A01EE24F3
:10165000E39400E026E040E80E941D0A0F900F90FE
:101660000F91EF90DF90CF90BF90AF909F908F90B1
:1016700008954F925F926F927F928F929F92AF9256
:10168000BF92CF92DF92EF92FF920F931F93CF936F
:10169000DF93CDB7DEB7C054D1090FB6F894DEBFE3
:1016A0000FBECDBF3C01162F522E432E1F921F920C
:1016B000CE0101964C0199E0A92EB12C29E0C22E51
:1016C000D12C32E0E32E042F26E040E8C3010E9433
:1016D0001D0A0F900F9081110FC0CB80DC804F92BC
:1016E0005F9280E4A82EB12C26E040E8612FC30170
:1016F0000E941D0A0F900F90C05CDF4F0FB6F89448
:10170000DEBF0FBECDBFDF91CF911F910F91FF9034
:10171000EF90DF90CF90BF90AF909F908F907F9091
:101720006F905F904F9008953F924F925F926F92AB
:101730007F928F929F92AF92BF92CF92DF92EF9261
:10174000FF920F931F93CF93DF93CDB7DEB7E99747
:101750000FB6F894DEBF0FBECDBFFC0182898E7F2D
:101760008D7F828B85898E7F8D7F858B868119ED1C
:10177000811113C0022F442E562E3F01C480D58004
:10178000D601ED91FC910190F081E02D60E0C60161
:1017900009955C010097D1F416ED812FE9960FB6FB
:1017A000F894DEBF0FBECDBFDF91CF911F910F9197
:1017B000FF90EF90DF90CF90BF90AF909F908F9071
:1017C0007F906F905F904F903F900895FC018080D4
:1017D000918017ED8114910401F37301FDE0EF0E88
:1017E000F11CDC011196FC92EE9214960C939E0172
:1017F000285D3F4F48E050E060E0F301848195812F
:101800000E941A0B182FD5018D929C92811146C10E
:10181000D601ED91FC910280F381E02D242D40E072
:10182000652DC6010995F301868314ED882309F41B
:10183000B4CF9FA59687682F848195810E94EE0A78
:10184000182FD601ED91FC91D50114961C92882396
:1018500059F00480F581E02DD30116966C91C601F4
:101860000995F301168299CF0190F081E02DD30103
:1018700016966C91C6010995009709F48DCFFC016D
:1018800004839E01285D3F4F42E150E0D30116964C
:101890006C91169714968D919C910E941A0B182F9B
:1018A0008111FCC088A999A9F301938782878AA92D
:1018B0009BA991878087848195810681E114F10439
:1018C00009F4F7C0602F0E949C06FC01892B09F4E3
:1018D000F2C049AC0283F182E08281E0838383E03D
:1018E000D3011C968C931C971A968D919C918533ED
:1018F000924189F4F301808591858032910539F018
:101900008135910521F08936910509F076C082E094
:10191000D3011C968C93512C01E09AE2A92E91E000
:10192000B92E4301B2E08B0E911C332433946E0127
:10193000E1E1CE0ED11C541409F474C0BA82A9821C
:101940009C828B821D821A861B861E86188A1F86A1
:1019500019A21AA21BA21CA23DA2DF82CE82D986A6
:10196000C886DD86CC869E012F5F3F4F452DD30173
:1019700016966C91169714968D919C910E94390B36
:10198000811195C08CA1080F023008F449C00FA145
:10199000F301848195811681612F0E949C06FC01D0
:1019A000892B29F01283F182E08283E083831F92E6
:1019B0001F92912C812CB12CA12CD12CC12CE12C6B
:1019C00029E040E0D30116966C91169714968D91FC
:1019D0009C910E941D0A182F0F900F9081115EC0DC
:1019E000F301E95AFF4F0190F081E02D309709F0A3
:1019F000099581E0F3018783D0CE9C012053310902
:101A00002330310508F483CF2550310922303105C8
:101A100008F47DCF8B579109039708F478CF7BCFDB
:101A2000539489CF0130C9F58AE2882E81E0982E3F
:101A30005301F2E0AF0EB11C6E0121E1C20ED11CC8
:101A4000511659F19A828982BC82AB821D821A8614
:101A50001B861E86188A1F8619A21AA21BA21CA208
:101A60001DA2DF82CE82D986C886DD86CC869E0105
:101A70002F5F3F4F412FD30116966C911697149606
:101A80008D919C910E94390B811111C08CA1080F7E
:101A9000023008F07CCF1F5FD3CF1FEFD301ED9151
:101AA000FC910480F581E02DC301099576CE182FB5
:101AB000F5CF18EDF3CF16EDF1CFFC01019000202A
:101AC000E9F73197AF01481B590BBC0181E891E060
:101AD0000C94BB018F929F92AF92BF920F931F9372
:101AE000CF93DF93CDB7DEB7A1970FB6F894DEBFE3
:101AF0000FBECDBF19A2423008F44AE08E010F5D3F
:101B00001F4F842E912CB12CA12CA50194010E9471
:101B1000221BE62FB901CA01EA30F4F4E05DD801D6
:101B2000EE938D01232B242B252B79F790E080E079
:101B3000109719F0CD010E945D0DA1960FB6F89493
:101B4000DEBF0FBECDBFDF91CF911F910F91BF9030
:101B5000AF909F908F900895E95CE1CFCF92DF9294
:101B6000EF92FF92CF93DF9397FF19C06B017C0137
:101B70008DE20E94C302EC0166277727CB016C1926
:101B80007D098E099F094AE00E946A0D8C0F9D1FF6
:101B9000DF91CF91FF90EF90DF90CF9008954AE0D2
:101BA000DF91CF91FF90EF90DF90CF900C946A0D72
:101BB0008F929F92AF92BF92CF92DF92EF92FF925D
:101BC0001F93CF93DF936B017C01B42E20E030E0B4
:101BD000A9010E94CB18D0E0C0E087FF08C08DE2C9
:101BE0000E94C302EC01F7FAF094F7F8F09410E0C9
:101BF00060E070E080E09FE31B1541F020E030E002
:101C000040E251E40E945C1A1F5FF6CFA7019601E3
:101C10000E94F0196B017C010E94CE1A4B015C01FD
:101C20004AE00E946A0DC80FD91F1123B1F1C50106
:101C3000B4010E94D0189B01AC01C701B6010E94FB
:101C4000EF196B017C018EE20E94C302C80FD91FFD
:101C5000115018F120E030E040E251E4C701B60134
:101C60000E9431194B015C010E94CE1A6B01F12CCC
:101C7000E12C4AE0C701B6010E946A0DC80FD91FC6
:101C8000C701B6010E94D0189B01AC01C501B40187
:101C90000E94EF196B017C01DBCFCE01DF91CF9168
:101CA0001F91FF90EF90DF90CF90BF90AF909F90EB
:101CB0008F900895CF93DF930E94A802EC0186E6EF
:101CC00091E00E945D0D8C0F9D1FDF91CF910895D3
:101CD0001F920F920FB60F9211242F933F934F93A1
:101CE0005F936F937F938F939F93AF93BF93EF9384
:101CF000FF9381E891E00E943902FF91EF91BF913B
:101D0000AF919F918F917F916F915F914F913F9193
:101D10002F910F900FBE0F901F9018951F920F924A
:101D20000FB60F9211242F938F939F93EF93FF93EE
:101D3000E0919101F09192018081E0919701F09101
:101D4000980182FD1BC0908180919A018F5F8F73F3
:101D500020919B01821741F0E0919A01F0E0EF574A
:101D6000FE4F958F80939A01FF91EF919F918F91F4
:101D70002F910F900FBE0F901F9018958081F4CF78
:101D80001F920F920FB60F9211242F933F938F93B0
:101D90009F93AF93BF9380916C0190916D01A0913F
:101DA0006E01B0916F0130916B0123E0230F2D374D
:101DB00058F50196A11DB11D20936B0180936C0114
:101DC00090936D01A0936E01B0936F0180917001AB
:101DD00090917101A0917201B09173010196A11DC2
:101DE000B11D8093700190937101A0937201B09323
:101DF0007301BF91AF919F918F913F912F910F9060
:101E00000FBE0F901F90189526E8230F0296A11D74
:101E1000B11DD2CF1F920F920FB60F921124CF9205
:101E2000DF92EF92FF920F931F932F933F934F9365
:101E30005F936F937F938F939F93AF93BF93EF9332
:101E4000FF93CF93DF93CDB7DEB72997DEBFCDBF2A
:101E500080916A018F5F6CE00E94021BF92E9093C3
:101E60006A01809100018F5F90E06BE470E00E9456
:101E70000E1B8C01E82E809300018091F3028823D1
:101E800009F4AEC0813009F4B9C0F11003C081E09B
:101E900080937F01E11085C00091EF021091F00264
:101EA000D80119968D919C91892B09F47AC0F8017B
:101EB000C784D088E188F2880E9465036C157D058F
:101EC0008E059F0548F40E946503D8011F966D9307
:101ED0007D938D939C9352970E946503F801C7846C
:101EE000D088E188F2886C197D098E099F096C32CF
:101EF000714081059105D8F2F894D80114968D911E
:101F00009C9115979A8389831996ED91FC917F0195
:101F1000BFEFEB1AFB0A80818987F8019081038863
:101F2000F489E02DD80155968C91992309F498C035
:101F30009081982B98879081809589238F838F81BA
:101F40008C8388E08B8358856F8149853B812C8108
:101F500089819A81D701508347FD252F3A952083A7
:101F6000262F39F0441F00C000006083000000C02D
:101F7000F2CF38E04D9160830000019761F7D801FE
:101F80005496FC93EE93539749873B832C839A8313
:101F9000898378940E946503F8016787708B818B31
:101FA000928B29960FB6F894DEBF0FBECDBFDF919E
:101FB000CF91FF91EF91BF91AF919F918F917F91C1
:101FC0006F915F914F913F912F911F910F91FF90D2
:101FD000EF90DF90CF900F900FBE0F901F9018954D
:101FE00086E0809FF001819FF00D1124EA5AFB4F9B
:101FF000808180FF4ACF8E7F808347CF26E0209F5D
:10200000C001219F900D112481519D4FFC01E95980
:10201000FE4F20818B599E4FDC01ED91FC91822F68
:1020200090E0959587958370992730E020FF0CC04C
:1020300020E02817390709F44EC04181411125CF0E
:1020400034962F5F3F4FF5CF20E02817390709F46A
:102050001CCF4181411166C034962F5F3F4FF5CFB1
:102060009081982B98879081809589238F838F8189
:102070008E8388E08D8358856F8149853D812E81CF
:1020800089819A81D701508347FD252F00C000C068
:10209000208300C000C000C000C000C060830000FA
:1020A000262F3A9541F0441F000000C000C000C038
:1020B00000C000C0E8CF38E04D9100C0608300C090
:1020C000019709F7D8015496FC93EE9353974987EB
:1020D0003D832E835CCF86E0809FF001819FF00DD1
:1020E0001124E85AFB4F80819181892B09F4CDCED0
:1020F0008091EF029091F002FC012281338102175E
:10210000130730F420E030E0A901B8010E94C803B1
:1021100086E0809FF001819FF00D1124EA5AFB4F69
:10212000808169CF8091EF029091F002DC011296DC
:102130002D913C910217130738F420E030E04FEF67
:1021400050E0B8010E94C80386E0809FF001819FA3
:10215000F00D1124EA5AFB4F808181604DCFEF9240
:10216000FF92D701FC01329713968C9113979485B7
:1021700089238230D9F412962C91129727FD81E0A1
:1021800090E0AC01440F551F840F951FE80FF91F15
:102190002F70258714968D919C918134910508F0BC
:1021A00080E4868781E0FF90EF90089580E0FBCF88
:1021B000EF92FF92D70113962C911397FC0134856F
:1021C00023232230E1F412962C911297E2E027FDAE
:1021D000E1E0F0E0AF01440F551FE40FF51FE80FF9
:1021E000F91F2F70258714968D919C91813491054C
:1021F00008F080E4868781E0FF90EF90089580E00A
:10220000FBCF8F929F92AF92BF92CF92DF92EF92CD
:10221000FF920F931F93CF93DF931092840110923C
:10222000830188EE93E0A0E0B0E080938501909375
:102230008601A0938701B093880180E391E0909399
:1022400082018093810185EC90E090938E018093D0
:102250008D0184EC90E09093900180938F0180EC4D
:1022600090E0909392018093910181EC90E09093A3
:1022700094018093930182EC90E090939601809377
:10228000950186EC90E090939801809397011092CD
:102290009A0110929B0110929C0110929D0188EC72
:1022A0008093F1021092F20281E08093F302E4E560
:1022B000F4E011821082369626E0E631F207C9F783
:1022C0008CE0E7E0F1E0A6E1B6E001900D928A959E
:1022D000E1F78CE0E3E1F1E0A2E2B6E001900D92DB
:1022E0008A95E1F788E190E00E945E1BEC01188678
:1022F00081E08B871C8692E09D878E8781EE90E03F
:102300000E945E1B21EE30E04BE450E0009721F488
:1023100030E020E050E040E0EBE0F3E0E491F0E07A
:10232000EE0FFF1FE550FD4F65917491EDEEF2E069
:10233000E491F1E0F88319825B834A833D832C8327
:1023400026E030E03F832E839A8789871F86188A8C
:10235000198A1A8A7C8B6B8BED8B0E94FA1B60E0CA
:1023600086E00E943403D093F002C093EF02F09015
:10237000F102C4EFD2E015E1BCE0EB2E06E0812FC4
:102380006E2D0E94021BA82FA150BB0B6D01292F9F
:1023900030E0F901EA5EF94F8081812C912C5401E3
:1023A000882349F0215031097AE9872E79E9972E5F
:1023B000A92C7FE3B72E2E5D394FF901608170E0C3
:1023C0006F5F7F4F90E080E00E94D0182AE939E9E2
:1023D00049E150E40E943119A50194010E94F019CD
:1023E0004B015C01B60190E080E00E94D0182AE920
:1023F00039E949E150E40E94311920E030E040EE33
:1024000050E40E94311920E030E040E451E40E94A1
:10241000EF19A50194010E94F01923E333E343ED82
:102420005FE30E945C1A20E030E040E85FE30E9436
:10243000EF194B015C010E94CE1AD62E1883198227
:102440001A8270E090E080E00E94D2189B01AC01FB
:10245000C501B4010E94EF192DEC3CEC4CE05FE3A8
:102460000E94FD1A87FD46C08D2D80688B832B81CD
:10247000F22FF170BF2E42E050E020FD02C041E09B
:1024800050E02F7730E0D12C8D2D90E08417950708
:10249000A4F5820F931F089FF001099FF00D1124EE
:1024A000EC5AFB4F60817181672B11F4D183C0839B
:1024B000089FB001099F700D112461517D4FFB01F0
:1024C000E959FE4FC080CB0188599E4FDC01FC9238
:1024D00067597E4FDB011D921C928C2D90E09595E3
:1024E000879583708F5FAC2DA97FAB298A2B808362
:1024F000D394CACF8D2D8F77B9CF1F5F24961D3609
:1025000009F03DCF80E691E09093790280937802C4
:102510001092800281E080938102109282028AE709
:1025200092E090937F0280937E0210927A0288E07C
:1025300080937B028CE380937C0210927D02E8E71B
:10254000F2E083EC92E041E02AE732E0158646872C
:1025500017863487238735968E179F07B9F7109211
:10256000EE0281E180931E0282E491E090932002CA
:1025700080931F028AE591E09093220280932102CA
:1025800088E792E090932402809323021092250220
:102590001092260210927502109277021092760223
:1025A00010922C0288E080932D0280912E0283707D
:1025B0008C6380932E0210922F0210923002809131
:1025C0003102837084608093310210923202109243
:1025D0003302809134028370846080933402EEEC85
:1025E000F2E090E080E021913191232BB1F4880F4B
:1025F000991FFC01E253FD4F8FE192E091838083AC
:10260000DF91CF911F910F91FF90EF90DF90CF90CE
:10261000BF90AF909F908F90089501968031910563
:1026200011F7EECFCF93DF93CDB7DEB7CB54D109FF
:102630000FB6F894DEBF0FBECDBF789484B582602C
:1026400084BD84B5816084BD85B5826085BD85B556
:10265000816085BD80916E00816080936E001092D4
:10266000810080918100826080938100809181004F
:1026700081608093810080918000816080938000E0
:102680008091B10084608093B1008091B00081603E
:102690008093B00080917A00846080937A0080916A
:1026A0007A00826080937A0080917A0081608093C2
:1026B0007A0080917A00806880937A001092C1003D
:1026C000E0919101F091920182E08083E0918D018F
:1026D000F0918E011082E0918F01F091900180E1E4
:1026E000808310929901E0919501F091960186E026
:1026F0008083E0919301F0919401808180618083D7
:10270000E0919301F0919401808188608083E09151
:102710009301F0919401808180688083E09193011E
:10272000F091940180818F7D808387ED90E00E94FD
:10273000A80264E370E080E090E00E94AE0D86E6BF
:1027400091E00E945D0D89EC90E00E94A80242E0B9
:102750006AE979E989E190E40E94D80D86E691E082
:102760000E945D0D8AEB90E00E94A80242E06AE9B7
:1027700079E989EF92E40E94D80D86E691E00E9403
:102780005D0D8DEA90E00E94A8026BE470E080E0AD
:1027900090E00E94AE0D86E691E00E945D0D04EF90
:1027A00012E07FEEC72E72E0D72E812C912C5401BF
:1027B00074018BE890E00E94A802D8016C9170E04F
:1027C00090E080E04AE00E946A0DF80180818A3042
:1027D00018F480E20E94C302D8018C91843618F468
:1027E00080E20E94C3028FE790E00E94A802F801F5
:1027F00063816F7770E090E080E00E94AE0DD801B9
:1028000013968C918F778A3018F480E20E94C3026D
:10281000F801838180FF01C18CE790E00E94A8024B
:10282000D80113966C916F7770E06F5F7F4F072E22
:10283000000C880B990B0E94AE0DF80183818F77F5
:10284000893018F480E20E94C3028DE50E94C30221
:102850008AEA90E00E94A802B80190E080E04AE095
:102860000E946A0D85EA90E00E94A802B701FF0C61
:10287000880B990B0E94D21822ED35E447E952E407
:102880000E94CB1887FF18C082EA90E00E94A8023D
:10289000B6016B597E4F90E080E04AE00E946A0DDD
:1028A0008BE990E00E94A8024AE0C501B4010E94B1
:1028B0006A0D80E20E94C30286E691E00E945D0DEF
:1028C0000C5F1F4FF6E0CF0ED11C2FEF821A920A39
:1028D000A20AB20A38E583169104A104B10409F0F2
:1028E00067CF81E080937C010FE013E061EFE62E7B
:1028F00062E0F62E81E091E00E94A802229A0E94F6
:10290000C006DFB6F89480917401811125C0F801EA
:102910008491F7019491E82FF0E0EE0FFF1FE5514D
:10292000FF4FA591B4918C91982321F461E08AE046
:102930000E94E80261E08AE00E9434038CB5806165
:102940008CBD8CB580648CBD61E08DE00E94340349
:1029500061E08BE00E943403809174018F5F80936B
:102960007401DFBE229A0E94C006219868E188E8BF
:102970000E94EB0660E288E70E94EB0660E088E7D1
:102980000E94EB06D12CC12C88E60E9413072FEF82
:10299000C21AD20A80FF4BC061EC88ED0E94EB06A0
:1029A00060E680ED0E94EB0664E088EE0E94EB0694
:1029B00088EE0E94130782FFFBCF0E94E00860E2CE
:1029C00088EC0E94EB0661E080E80E94EB0685EF50
:1029D00090E00E945A0E7E0131E4E30EF11C45E0C6
:1029E000242E10917F01112309F469C110927F01F7
:1029F000199906C088EC0E94130785FD0E94E00823
:102A000080918001813009F475C008F477C082306C
:102A1000F1F08330E9F010E031C080E20E94C3029F
:102A200080E20E94C30280E20E94C3020BCFFFEF4C
:102A3000CF16DF0609F0A8CF8AEF90E00E945A0E69
:102A400060ED77E080E090E00E948A0353CF10E0D1
:102A500080911E02807F803189F40E94BC036853FC
:102A60007F4F8F4F9F4F60937801709379018093D0
:102A70007A0190937B0180E280931E023EEC632EEC
:102A800032E0732E6301D6018D919D916D01009707
:102A900039F0DC01ED91FC910680F781E02D09957C
:102AA000EEEEF2E0EC15FD0571F780911E02803428
:102AB00009F428C158F5803209F40EC1803309F4B5
:102AC0001BC1813109F040C01092EE02D3018D91FB
:102AD0009D913D01009739F0DC01ED91FC9104805E
:102AE000F581E02D0995C614D70481F782E1809322
:102AF0001E022AC083E180931E028DCF80911E02A8
:102B0000807F803109F487CF81E1F5CF813509F4E9
:102B100008C1803809F418C18035B1F488EC0E94EE
:102B2000130786FF11C081E580931E020E94BC033B
:102B30006C5E7F4F8F4F9F4F609378017093790148
:102B400080937A0190937B0180911E0290917E0187
:102B5000981729F080937E0181E080937D01809118
:102B60007D018823E1F010927D0110917C011123F9
:102B700021F086ED92E00E94A80280917E018034CF
:102B800009F41EC208F0DFC1823109F413C208F053
:102B9000CDC1803109F4F4C1813109F4F9C18091CA
:102BA0007E01803909F08BC080912602882309F4C8
:102BB00086C0E09175028FEF8E0F8F3348F4F0E0FE
:102BC000E15EFD4F8689811150C0878981114DC01A
:102BD000109275028091300290E02A969FAF8EAFDE
:102BE0002A97C0902302D090240240912F02609136
:102BF0002502F701118210821A8219828E010F5F5D
:102C00001F4F9701C6010E94870781110DC049819E
:102C10005A81D7016D917C9105E312E09E01285BFA
:102C20003F4FC6010E9474092A962EAD3FAD2A97E8
:102C30002C33310540F4F901EB5CFD4F10822A5C26
:102C40003D4FF901108281113AC080913502811106
:102C50000CC080913602811108C080913702811129
:102C600004C080913802882351F1A0917502EA2FA7
:102C7000F0E0E15EFD4F268981E08A0F90E0815E01
:102C80009D4FFC0186898093750182E08A0F90E058
:102C9000815E9D4FFC0186898093760184E08A0FD6
:102CA00080937502AD5FB0E0A15EBD4F56968C91EA
:102CB00080937701E22FF0E0EF5EFE4FE49120E099
:102CC00030E0232B09F48DCE0E942502882309F4DD
:102CD00086CE0E94000083CE0E94BC030091780142
:102CE0001091790120917A0130917B01601B710B69
:102CF000820B930B97FD28CF61E088EE0E94EB06D4
:102D000080E4F5CE88EE0E94130780FD1DCF88ED8C
:102D10000E941307682F686088ED0E94EB0680E52B
:102D2000E6CE0E94BC038090780190907901A0903B
:102D30007A01B0907B01681979098A099B0997FD8E
:102D400003CF80E880931E02F701108288E0818320
:102D50008CE38283C0907E02D0907F02F0927F024B
:102D6000E0927E02109382029E012F5F3F4F42E16C
:102D700050E060E088E792E00E941A0B082FD092A2
:102D80007F02C0927E02811150C0A984BA848B84D4
:102D90009C844D803E802EECC22E22E0D22E512CFF
:102DA000D6018D919C91009709F041C05394B2E0F7
:102DB000CB0ED11CE0E15E12F3CFF3018081918153
:102DC000009709F076C00F5FF2E06F0E711C0031C2
:102DD000A1F780917E0290917F02892B09F459C05E
:102DE0001093820220E040E060E088E792E00E94D9
:102DF0004706D82E882309F44CC0682F88E792E054
:102E00000E949C06009709F444C0FC0114836D2DB8
:102E100088E792E00E94EE0A082F882309F484C014
:102E20006D2D88E792E00E942506802F2FC0DC01DF
:102E3000ED91FC910084F185E02D09958111B6CFCB
:102E4000F60180819181DC01ED91FC910088F1898E
:102E5000E02D632D0995882309F4A8CFF601808120
:102E60009181DC01ED91FC910484F585E02DA401B4
:102E7000B5010995882379F0612F852D0E941009ED
:102E8000813D09F493CF882309F44EC0823D09F4B3
:102E90005BCE80EA2CCEF60180819181DC01ED9140
:102EA000FC910684F785E02D642D09958111E4CF0E
:102EB0007DCFDC01ED91FC910084F185E02D099539
:102EC000811181CFF30180819181DC01ED91FC9131
:102ED0000088F189E02D632D0995811109C0612FCA
:102EE000802F0E941009982F977F913D61F66BCF3C
:102EF000F30180819181DC01ED91FC910484F585E1
:102F0000E02DA401B501099581115DCFF301808108
:102F10009181DC01ED91FC910684F785E02D642D13
:102F200009958823E1F24FCF80E9E1CD8032B1F1FC
:102F30008033D1F1833109F032CE81E892E0112360
:102F400009F42DCE22C0803609F446C058F48035ED
:102F5000E9F1813509F023CE8BEA91E0112309F4E0
:102F60001ECE13C0803909F443C0803AD9F18038AD
:102F700009F015CE82E691E0112309F410CE05C0C8
:102F800082EC92E0112309F40ACE0E94A80207CE37
:102F9000112309F404CE80EA92E0F7CF83E692E0B1
:102FA000112309F4FCCDF1CF8FE392E0112309F452
:102FB000F6CDEBCF88E192E0112309F4F0CDE5CF17
:102FC0008DEE91E0112309F4EACDDFCF8DEC91E095
:102FD000112309F4E4CDD9CF89E791E0112309F455
:102FE000DECDD3CF81E591E0112309F4D8CDCDCF4B
:102FF000112341F08EE391E00E94A80281E291E06A
:103000000E94A80287E0EFE1F1E0D70101900D9264
:103010008A95E1F780903002F701912C87E0C82E65
:10302000D12C94E0792EA1E0B0E0AC0FBD1FA90D2A
:10303000B11D7C92608141E0490D50E022E0290DF4
:1030400030E083E0890D90E074E0970E72E0C716DF
:10305000D10409F457C073E0C716D10409F470C055
:1030600071E0C716D10409F06DC02C925F01AFEF7B
:10307000AA1ABA0AE1E0F0E0EC0FFD1F4E0F5F1F45
:10308000DA016C932E0F3F1FF901108221E030E02E
:103090002C0F3D1F820F931FDC011C92D12CC12CE1
:1030A0008091230290912402409132026091250286
:1030B0002C961FAE1EAE2C972A961FAE1EAE2A97D8
:1030C0008E01085B1F4F9E01265B3F4F0E948707C2
:1030D000811165CD492D50E02A966EAD7FAD2A97BE
:1030E0009E012F5F3F4F2C968EAD9FAD2C970E9477
:1030F000EF07982E811153CDC114D10409F44FCD9F
:10310000F50191CF76E07C93A1E0B0E0AC0FBD1F5C
:103110004A0F5B1FDA016C935F01B2E0AB0EB11C8A
:1031200041E050E04C0F5D1F240F351F4181D90154
:103130004C93E1E0F0E0EC0FFD1F8E0F9F1FACCF32
:1031400077E07C93A1E0B0E0AC0FBD1F4A0F5B1F9E
:10315000DA016C9341E050E04C0F5D1F240F351FE6
:103160004181D9014C935F01B3E0AB0EB11C21E06A
:1031700030E02C0F3D1F820F931F2281DC012C9326
:10318000B3E0CB1AD108981408F08ACFC114D10447
:1031900009F0B6CF85CF0E940D1908F481E008959B
:1031A000E89409C097FB3EF49095809570956195E1
:1031B0007F4F8F4F9F4F9923A9F0F92F96E9BB2797
:1031C0009395F695879577956795B795F111F8CF13
:1031D000FAF4BB0F11F460FF1BC06F5F7F4F8F4F7E
:1031E0009F4F16C0882311F096E911C0772321F074
:1031F0009EE8872F762F05C0662371F096E8862F0C
:1032000070E060E02AF09A95660F771F881FDAF762
:10321000880F9695879597F90895990F0008550F8F
:10322000AA0BE0E8FEEF16161706E807F907C0F04C
:1032300012161306E407F50798F0621B730B840B54
:10324000950B39F40A2661F0232B242B252B21F42E
:1032500008950A2609F4A140A6958FEF811D811DCE
:1032600008950E9444190C94B5190E94A71938F0CA
:103270000E94AE1920F0952311F00C949E190C9425
:10328000A41911240C94E9190E94C61970F3959F92
:10329000C1F3950F50E0551F629FF001729FBB274D
:1032A000F00DB11D639FAA27F00DB11DAA1F649FE9
:1032B0006627B00DA11D661F829F2227B00DA11D9C
:1032C000621F739FB00DA11D621F839FA00D611D22
:1032D000221F749F3327A00D611D231F849F600D43
:1032E000211D822F762F6A2F11249F5750409AF06C
:1032F000F1F088234AF0EE0FFF1FBB1F661F771FF8
:10330000881F91505040A9F79E3F510580F00C94C2
:103310009E190C94E9195F3FE4F3983ED4F3869527
:1033200077956795B795F795E7959F5FC1F7FE2B62
:10333000880F911D9695879597F9089597F99F673E
:1033400080E870E060E008959FEF80EC089500242D
:103350000A941616170618060906089500240A94FA
:1033600012161306140605060895092E0394000C80
:1033700011F4882352F0BB0F40F4BF2B11F460FF0F
:1033800004C06F5F7F4F8F4F9F4F089557FD905838
:10339000440F551F59F05F3F71F04795880F97FB19
:1033A000991F61F09F3F79F08795089512161306D3
:1033B0001406551FF2CF4695F1DF08C01616170602
:1033C0001806991FF1CF8695710561050894089537
:1033D000E894BB2766277727CB0197F908955058C3
:1033E000BB27AA270E94071A0C94B5190E94A71997
:1033F00038F00E94AE1920F039F49F3F19F426F4FA
:103400000C94A4190EF4E095E7FB0C949E19E92F97
:103410000E94C61958F3BA17620773078407950705
:1034200020F079F4A6F50C94E8190EF4E0950B2E33
:10343000BA2FA02D0B01B90190010C01CA01A00106
:103440001124FF27591B99F0593F50F4503E68F161
:103450001A16F040A22F232F342F4427585FF3CFA2
:10346000469537952795A795F0405395C9F77EF473
:103470001F16BA0B620B730B840BBAF09150A1F0BC
:10348000FF0FBB1F661F771F881FC2F70EC0BA0F42
:10349000621F731F841F48F4879577956795B795CA
:1034A000F7959E3F08F0B0CF9395880F08F09927C5
:1034B000EE0F9795879508950E94701A0C94B51990
:1034C0000E94AE1958F00E94A71940F029F45F3FFE
:1034D00029F00C949E1951110C94E9190C94A4191B
:1034E0000E94C61968F39923B1F3552391F3951BF4
:1034F000550BBB27AA2762177307840738F09F5F15
:103500005F4F220F331F441FAA1FA9F335D00E2E81
:103510003AF0E0E832D091505040E695001CCAF7EE
:103520002BD0FE2F29D0660F771F881FBB1F2617B1
:1035300037074807AB07B0E809F0BB0B802DBF0188
:10354000FF2793585F4F3AF09E3F510578F00C9457
:103550009E190C94E9195F3FE4F3983ED4F38695E5
:1035600077956795B795F7959F5FC9F7880F911D78
:103570009695879597F90895E1E0660F771F881F64
:10358000BB1F621773078407BA0720F0621B730B17
:10359000840BBA0BEE1F88F7E09508950E94CE19B0
:1035A00088F09F5798F0B92F9927B751B0F0E1F004
:1035B000660F771F881F991F1AF0BA95C9F714C0B4
:1035C000B13091F00E94E819B1E008950C94E81927
:1035D000672F782F8827B85F39F0B93FCCF38695ED
:1035E00077956795B395D9F73EF49095809570954A
:1035F00061957F4F8F4F9F4F08950E940D1908F4DA
:103600008FEF0895991B79E004C0991F961708F071
:10361000961B881F7A95C9F78095089597FB072E0A
:1036200016F4009407D077FD09D00E94441B07FCD4
:1036300005D03EF4909581959F4F089570956195C2
:103640007F4F0895A1E21A2EAA1BBB1BFD010DC0DE
:10365000AA1FBB1FEE1FFF1FA217B307E407F50742
:1036600020F0A21BB30BE40BF50B661F771F881F1E
:10367000991F1A9469F760957095809590959B01B4
:10368000AC01BD01CF010895AA1BBB1B51E107C0CE
:10369000AA1FBB1FA617B70710F0A61BB70B881FE2
:1036A000991F5A95A9F780959095BC01CD01089571
:1036B000EE0FFF1F0590F491E02D09940F931F93D7
:1036C000CF93DF938230910510F482E090E0E09197
:1036D0003006F091310630E020E0B0E0A0E0309715
:1036E00099F42115310509F44AC0281B390B2430FF
:1036F0003105D8F58A819B816115710589F1FB013E
:1037000093838283FE0111C0408151810281138124
:1037100048175907E0F04817590799F4109761F0D6
:1037200012960C93129713961C933296CF01DF9149
:10373000CF911F910F910895009330061093310699
:10374000F4CF2115310551F04217530738F0A90184
:10375000DB019A01BD01DF01F801C1CFEF01F9CF13
:103760009093310680933006CDCFFE01E20FF31F18
:10377000819391932250310939832883D7CF2091A7
:103780002E0630912F06232B41F420910301309116
:10379000040130932F0620932E06209101013091D1
:1037A00002012115310541F42DB73EB740910501C5
:1037B00050910601241B350BE0912E06F0912F0647
:1037C000E217F307A0F42E1B3F0B2817390778F0F8
:1037D000AC014E5F5F4F2417350748F04E0F5F1F57
:1037E00050932F0640932E06819391939FCFF0E044
:1037F000E0E09CCFCF93DF930097E9F0FC01329794
:1038000013821282A0913006B0913106ED0130E0B2
:1038100020E01097A1F420813181820F931F209125
:103820002E0630912F062817390709F061C0F09352
:103830002F06E0932E06DF91CF910895EA01CE176F
:10384000DF07E8F54A815B819E0141155105B1F71B
:10385000E901FB83EA8349915991C40FD51FEC1705
:10386000FD0761F4808191810296840F951FE90123
:1038700099838883828193819B838A83F0E0E0E04F
:1038800012968D919C9113970097B9F52D913C91CB
:103890001197CD010296820F931F20912E06309131
:1038A0002F062817390739F6309751F5109231064F
:1038B00010923006B0932F06A0932E06BCCFD38370
:1038C000C28340815181840F951FC817D90761F4C5
:1038D0004E5F5F4F88819981480F591F5183408304
:1038E0008A819B81938382832115310509F0B0CFB2
:1038F000F0933106E09330069ECFFD01DC01C0CF8E
:1039000013821282D7CFDC0101C06D934150504029
:10391000E0F70895F894FFCF4A00003206800000D7
:10392000010001000001000100010000000101028E
:1039300003030404050506F07F7F027F0AF70000F9
:1039400000007804000000005B02BB01E801C8022F
:103950001902F7010B0200000000940BBC062404BE
:10396000B5063A04BB06B306B906B706D810FEFF83
:103970000000AF10000000009C06470625060D0A57
:02398000000045
:107E0000112484B714BE81FFF0D085E080938100F7
:107E100082E08093C00088E18093C10086E0809377
:107E2000C20080E18093C4008EE0C9D0259A86E02C
:107E300020E33CEF91E0309385002093840096BBD3
:107E4000B09BFECF1D9AA8958150A9F7CC24DD24C4
:107E500088248394B5E0AB2EA1E19A2EF3E0BF2EE7
:107E6000A2D0813461F49FD0082FAFD0023811F036
:107E7000013811F484E001C083E08DD089C08234E0
:107E800011F484E103C0853419F485E0A6D080C0E4
:107E9000853579F488D0E82EFF2485D0082F10E0AE
:107EA000102F00270E291F29000F111F8ED06801E7
:107EB0006FC0863521F484E090D080E0DECF843638
:107EC00009F040C070D06FD0082F6DD080E0C81688
:107ED00080E7D80618F4F601B7BEE895C0E0D1E017
:107EE00062D089930C17E1F7F0E0CF16F0E7DF06D8
:107EF00018F0F601B7BEE89568D007B600FCFDCFD4
:107F0000A601A0E0B1E02C9130E011968C91119780
:107F100090E0982F8827822B932B1296FA010C0160
:107F200087BEE89511244E5F5F4FF1E0A038BF0790
:107F300051F7F601A7BEE89507B600FCFDCF97BE46
:107F4000E89526C08437B1F42ED02DD0F82E2BD052
:107F50003CD0F601EF2C8F010F5F1F4F84911BD097
:107F6000EA94F801C1F70894C11CD11CFA94CF0C13
:107F7000D11C0EC0853739F428D08EE10CD085E9AC
:107F80000AD08FE07ACF813511F488E018D01DD067
:107F900080E101D065CF982F8091C00085FFFCCF94
:107FA0009093C60008958091C00087FFFCCF809118
:107FB000C00084FD01C0A8958091C6000895E0E648
:107FC000F0E098E1908380830895EDDF803219F02E
:107FD00088E0F5DFFFCF84E1DECF1F93182FE3DFCA
:107FE0001150E9F7F2DF1F91089580E0E8DFEE27F6
:047FF000FF270994CA
:027FFE00040479
:00000001FF
